:020000040800F2
:1000000078070020890100084F1400080713000832
:100010004D1400088F020008CD17000800000000F2
:100020000000000000000000000000005314000861
:10003000A90200080000000051140008551400082F
:10004000A3010008A3010008A3010008A301000800
:10005000A3010008A3010008A3010008A3010008F0
:10006000A3010008A3010008A3010008A3010008E0
:10007000A3010008A3010008A3010008A3010008D0
:10008000910200089D020008A3010008A3010008D6
:10009000A3010008A3010008A3010008A3010008B0
:1000A000A3010008A3010008A3010008A3010008A0
:1000B00001150008A3010008A3010008A30100081E
:1000C000A3010008A3010008A3010008A301000880
:1000D000A3010008A3010008C1170008A30100083C
:1000E000A3010008A3010008A301000800F002F822
:1000F00000F03AF80AA090E8000C82448344AAF188
:100100000107DA4501D100F02FF8AFF2090EBAE885
:100110000F0013F0010F18BFFB1A43F0010318473B
:100120000C1700002C170000103A24BF78C878C1C3
:10013000FAD8520724BF30C830C144BF04680C60ED
:10014000704700000023002400250026103A28BF35
:1001500078C1FBD8520728BF30C148BF0B60704739
:100160001FB51FBD10B510BD00F058F81146FFF7C0
:10017000F7FF01F03DFB00F076F803B4FFF7F2FF64
:1001800003BC00F07DF8000009488047094800479B
:10019000FEE7FEE7FEE7FEE7FEE7FEE7FEE7FEE737
:1001A000FEE7FEE704480549054A064B7047000094
:1001B000B9140008ED00000878010020780700203D
:1001C00078030020780300204FF0000200B51346AA
:1001D00094469646203922BFA0E80C50A0E80C5067
:1001E000B1F12001BFF4F7AF090728BFA0E80C5018
:1001F00048BF0CC05DF804EB890028BF40F8042B11
:1002000008BF704748BF20F8022B11F0804F18BF7D
:1002100000F8012B7047704770477047754600F033
:100220002BF8AE4605006946534620F00700854688
:1002300018B020B5FFF7B6FFBDE820404FF000062C
:100240004FF000074FF000084FF0000B21F00701BE
:10025000AC46ACE8C009ACE8C009ACE8C009ACE801
:10026000C0098D46704710B50446AFF300802046A4
:10027000BDE81040FFF781BF00487047180100201B
:1002800001491820ABBEFEE7260002007047FEE7DA
:10029000014800F059B8000090000020014800F02B
:1002A00053B80000D4000020704772B6FEE700008B
:1002B00010B590F821100024022903D00421816395
:1002C00001243DE001680A6822F00E020A6001681C
:1002D0000A6822F001020A601A4A0168914201D1BB
:1002E000012121E0174A1432914201D110211BE073
:1002F000144A2832914201D1891515E0114A3C3245
:10030000914201D189140FE00E4A5032914202D13C
:100310004FF4803108E00B4A6432914202D14FF42D
:10032000801101E04FF08071064A083A51600121C6
:1003300080F82110002180F82010416B01B188471E
:10034000204610BD080002402DE9F05FC16B0C682B
:1003500001680B68D0F840C0042202FA0CF2494D43
:10036000DFF824A1494E4A4FDFF828B1DFF828E131
:1003700022422CD05A072AD50A68920603D40A686A
:1003800022F004020A600168A94201D1042219E0A6
:10039000514501D1402215E0B14202D14FF48062B3
:1003A00010E0B94202D14FF480420BE0594502D12E
:1003B0004FF4802206E0714502D14FF4800201E043
:1003C0004FF080622F4908394A60C16A3BE04FF024
:1003D000020808FA0CF818EA040F4FF000094FF071
:1003E000010235D05FEA837832D50B689B0605D4CD
:1003F0000B6823F00A030B6080F821200168A942F2
:1004000001D1022219E0514501D1202215E0B1426B
:1004100002D14FF4007210E0B94202D14FF4005201
:100420000BE0594502D14FF4003206E0714502D18C
:100430004FF4001201E04FF00072124908394A608F
:1004400080F82090816A00291AD0BDE8F05F084743
:10045000082505FA0CF5254212D01B0710D50B68AC
:1004600023F00E030B6090F84010C36B02FA01F109
:100470005960826380F8212080F82090016BE2E7C8
:10048000BDE8F09F080002401C000240300002401E
:1004900044000240580002406C00024030B528B3CE
:1004A00008C8134914221944B1FBF2F18900C16351
:1004B00010498163022141771A6843F6F0718A433B
:1004C000D0E900142143D0E902452C4321430469BB
:1004D0002143446921438469214311431960002168
:1004E0004163012242770177084630BD012030BDCB
:1004F000F8FFFDBF000002402DE9F84FDFF8B8918A
:10050000002409F1040A0AF1040B23460F270BF11A
:10051000040EC9E00125A5402A40AA427DD1674EBC
:10052000D1F804C0ACEB0608B44532D014DCBCF101
:10053000030F3AD009DCBCF1000F2AD0BCF1010F47
:100540001CD0BCF1020F31D11DE0BCF1110F17D04E
:10055000BCF1120F2AD119E0B8F5881F19D006DCBA
:10056000B8F5803F15D0B8F5801F1FD111E0B8F560
:10057000001F0ED0B8F5041F18D10AE0CB6815E0B3
:10058000CB681B1D12E0CB6808330FE0CB680C333F
:100590000CE08B682BB1012B4FF0080303D04561B1
:1005A00004E0042302E0056100E00023FF2A01D8F3
:1005B000064601E000F104064FEA840501D9A5F1E1
:1005C0002005D6F8008007FA05FC28EA0C0803FA93
:1005D00005F548EA0508C6F800804D68ED0062D5CB
:1005E000374DAE6946F00106AE61AD6924F00306F1
:1005F00005F001050095334D06EB050CDCF80850BD
:10060000A607360F07FA06F825EA0805DFF8B880CE
:10061000404503D14FF0000817E044E0DFF8AC801C
:10062000404502D14FF001080FE0DFF8A4804045BB
:1006300002D14FF0020808E0DFF89880404502D16F
:100640004FF0030801E04FF0040808FA06F848EA02
:100650000508CCF808804D68D9F80060ED034D46D8
:1006600001D5164300E096432E604D68DAF800602D
:10067000AD03554601D5164300E096432E604D6804
:10068000DBF80060ED025D4601D5164300E09643BD
:100690002E604D68DEF80060AD02754601D5164348
:1006A00000E096432E60641C0D682A46E5407FF406
:1006B00031AFBDE8F88F00000004014000001110C8
:1006C000001002400000014000080140000C014001
:1006D00000100140001401400AB101617047090493
:1006E000FBE7000001488068704700000000002020
:1006F0000248816802781144816070470000002040
:10070000074810B5016841F010010160032000F0B6
:1007100075F80F2000F006F800F024F8002010BD56
:100720000020024070B50D4D04464FF47A712878D0
:10073000B1FBF0F00A490968B1FBF0F000F0ECFA07
:1007400048B9102C07D200222146501E00F036F87E
:1007500000206C6070BD012070BD00000000002012
:100760000C0000200C4808B5816941F0010181614D
:10077000816901F001010091C16941F08051C161BD
:10078000C06900F0805000900448416821F0E061A9
:1007900041F00071416008BD0010024000000140BE
:1007A000002809DB00F01F02012191404009800070
:1007B00000F1E020C0F8001170470000F0B40E4BCB
:1007C0001B680C46C3F30223C3F10705042D00D9AF
:1007D0000425191D072901D2002300E0DB1E012694
:1007E00006FA05F1491E214099409E40761E1640AA
:1007F0003143F0BC00F0EBBF0CED00E0064900F027
:10080000070208684FF6FF03184040EA0220034A37
:1008100010430860704700000CED00E00000FA058E
:100820002DE9F0470F46050061D0434E306800F0D7
:100830000700B84209D2306820F007003843306022
:10084000306800F00700B84251D128683B4C81075E
:1008500012D5400703D5606840F4E06060602878F6
:10086000000703D5606840F4605060606068A96864
:1008700020F0F000084360602878C00728D068683E
:10088000012810D02168022810D0890700292EDA0B
:10089000616821F0030101436160FFF723FF804697
:1008A00041F288390DE021688903EFE78901EDE71E
:1008B000FFF718FFA0EB0801494502D90320BDE866
:1008C000F0876068696800F00C00B0EB810FEFD131
:1008D000306800F00700B8420BD9306820F00700FC
:1008E00038433060306800F00700B84201D0012082
:1008F000E5E72878400705D56068E96820F4E060FE
:10090000084360602878000706D56068296920F4EC
:10091000605040EAC100606000F038F86168084A41
:10092000C1F30311515CC8400649086006480068DD
:10093000FFF7F8FE0020C2E700200240001002404E
:10094000141800080C000020040000200448054989
:1009500000684968044AC1F30221515CC8407047ED
:100960000C0000200010024024180008044805492B
:1009700000684968044AC1F3C221515CC84070470D
:100980000C000020001002402418000812A185B0BD
:100990000FC98DE80F0014A0144A00680490516834
:1009A000134801F00C03042B10D0082B0ED1C1F317
:1009B0008343C9031DF803000AD5516804AAC1F393
:1009C0004041515C0A4A5043B0FBF1F005B070471A
:1009D00008494843FAE7000002030405060708092E
:1009E0000A0B0C0D0E0F1010010200000010024047
:1009F00000127A0000093D002DE9F84F040070D084
:100A00002078C04DC00749D06868C0F38100012834
:100A100007D06868C0F38100022809D16868C00364
:100A200006D52868800339D560680028E7D035E00E
:100A30006068B0F5803F0BD010B1B0F5A02F11D099
:100A4000286820F480302860286820F4802002E0A4
:100A5000286840F480302860606890B1FFF742FE5B
:100A600006460AE0286840F480202860F0E700BFCE
:100A7000FFF738FE801B642873D828688003F7D5F9
:100A80000CE0FFF72FFE064605E000BFFFF72AFE49
:100A9000801B6428F0D828688003F7D420789A4E09
:100AA00080074FF001094FF0000839D5686810F051
:100AB0000C0F07D06868C0F38100022809D168686C
:100AC000C00306D42868800714D52069012808D1FE
:100AD00010E02069B0B1C6F80090FFF703FE0746AA
:100AE00005E00AE1FFF7FEFDC01B0228C4D8286814
:100AF0008007F7D52868616920F0F80040EAC10056
:100B000028600DE0C6F80080FFF7ECFD074604E022
:100B1000FFF7E8FDC01B022823D828688007F7D418
:100B2000207800072CD57948A169D9B1C0F8009088
:100B3000FFF7D8FD074604E0FFF7D4FDC01B0228ED
:100B40000FD8686A8007F7D571484FF4FA510068EA
:100B5000B0FBF1F0009000BF0098411E0091FAD266
:100B60000EE080E0C0F80080FFF7BCFD074604E01F
:100B7000FFF7B8FDC01B022875D8686A8007F7D454
:100B80002078400760D5E8690027C00008D4E869EC
:100B900040F08050E861E869012700F08050009043
:100BA0005C480168C90513D40168834641F480712B
:100BB0000160FFF797FD824606E000BFFFF792FD58
:100BC000A0EB0A0064284ED8DBF80000C005F5D57C
:100BD000E06801280AD008B1052813D0286A20F05F
:100BE00001002862286A20F0040002E0286A40F030
:100BF00001002862E06841F2883B98B1FFF772FD7E
:100C000082460BE0286A40F004002862EEE700BF4D
:100C1000FFF768FDA0EB0A0159455AD8286A8007FA
:100C2000F6D50CE0FFF75EFD824605E0FFF75AFDC2
:100C3000A0EB0A0159454CD8286A8007F6D41FB1A9
:100C4000E86920F08050E861E06988B36968C1F321
:100C50008101022944D00228C6F8608004D0FFF741
:100C600041FD044638E034E0FFF73CFD074604E070
:100C7000FFF738FDC01B02282BD828688001F7D465
:100C8000206AB0F5803F05D16868A16820F4003083
:100C900008436860D4E908010843696821F47411C5
:100CA00008436860C6F86090FFF71CFD044606E044
:100CB00025E000BFFFF716FD001B022809D82868B1
:100CC0008001F7D51BE000BFFFF70CFD001B0228D9
:100CD00002D90320BDE8F88F28688001F4D40EE023
:100CE0000128F7D06868226A00F48031914204D16B
:100CF000616A00F47010884201D00120EAE7002008
:100D0000E8E7000000100240000042428004424236
:100D10000C0000200070004010B5401EB0F1807F34
:100D200001D3012010BD4FF0E02460610F21601756
:100D300000F04DFD0020A06107202061002010BDC3
:100D40007047704770B590F83C20012A19D00124F3
:100D500000F83C4F0222427050F83C3C5A689D68B3
:100D600022F070060A684968324325F0800529435D
:100D70005A6050F83C2C9160447000210170084684
:100D800070BD022070BD10B5040003D094F83D0082
:100D900010B107E0012010BD002084F83C0020467F
:100DA00000F00CF8022084F83D00211D206800F0BE
:100DB000ADFB012084F83D00002010BD08B500689F
:100DC000B0F1804F12D10A48C16941F00101C161FF
:100DD000C069002200F00100009011461C20FFF7BE
:100DE000EDFCBDE808401C20FFF7DABC08BD0000A0
:100DF000001002400168CA6842F00102CA6000683F
:100E0000816801F00701062903D0016841F0010162
:100E100001600020704770B5044690F83C0001283E
:100E200017D0012584F83C50022084F83D0020684A
:100E3000826822F0770222F47F428260086850289C
:100E400030D00DDC20284DD005DC98B310283BD1E4
:100E500048E0022070BD302844D0402834D139E029
:100E6000602828D0702806D0B0F5805F2CD0B0F56F
:100E7000005F29D10AE0CB68D1E90121206800F0A8
:100E80007BFB2068816841F0770109E0CB68D1E9FC
:100E90000121206800F070FB2068816841F48041E6
:100EA000816011E0CA684968206800F077FB502132
:100EB000206807E016E0CA684968206800F07FFBF8
:100EC0006021206800F062FB84F83D50002084F827
:100ED0003C0070BDCA684968206800F05FFB402193
:100EE0002068EFE7226801461046EBE7704770B5CF
:100EF0000446006801694FF00005C943890715D40D
:100F0000C168C943890711D4E91E01610120207716
:100F1000206880698007204602D0FFF7E7FF04E0E1
:100F200000F098F8204600F096F8257720680169CF
:100F3000C943490717D4C168C943490713D46FF09F
:100F400004010161022020772068806910F4407F4D
:100F5000204602D0FFF7CAFF04E000F07BF82046ED
:100F600000F079F8257720680169C943090716D48C
:100F7000C168C943090712D46FF008010161042058
:100F800020772068C0698007204602D0FFF7AEFFB7
:100F900004E000F05FF8204600F05DF82577206857
:100FA0000169C943C90617D4C168C943C90613D426
:100FB0006FF010010161082020772068C06910F4EB
:100FC000407F204602D0FFF791FF04E000F042F896
:100FD000204600F040F8257720680169C943C90719
:100FE00008D1C168C943C90704D1891E01612046DF
:100FF00000F032F820680169C943090609D4C168C4
:10100000C943090605D46FF0800101612046FFF74E
:1010100097FE20680169C943490609D4C168C943DC
:10102000490605D46FF040010161204600F020F828
:1010300020680169C94389060BD4C168C943890680
:1010400007D46FF0200101612046BDE87040FFF732
:1010500078BE70BD70477047072202A1034800F0B8
:1010600032B900004D656862616E67005000002073
:101070007047704770B5026804461068D1685369BC
:1010800010F00F0F50D003F0010501F490763543B6
:101090005DD0C20705D0CA0503D5E26B42F001025C
:1010A000E263420705D5DA0703D0E26B42F00202A1
:1010B000E263820705D5DA0703D0E26B42F004024F
:1010C000E263020705D5DA0703D0E26B42F00802BB
:1010D000E263E26B002A33D0800604D5880602D58D
:1010E000204600F094FA20684069E16BC0F380105C
:1010F000090700D428B3204600F07BFA2068416934
:1011000049061AD5416921F040014161606BA0B1E7
:101110001B494163606BFFF7CBF8002810D0606B70
:10112000416BBDE870400847830610D58B060ED58D
:101130002046BDE8704000F06ABA2046FFF799FFEC
:1011400070BD2046FFF795FF0020E06370BD0306E9
:1011500006D50B0604D52046BDE8704000F0FEBA67
:101160004006F3D54806F1D5D168204621F040016C
:10117000D160202184F8391000F0C4F870BD00005F
:10118000E315000870B5040004D094F83900002578
:1011900010B106E0012070BD84F83850204600F000
:1011A00023F8242084F839002068C16821F4005114
:1011B000C160204600F076FA2068016921F4904170
:1011C00001612068416921F02A0141612068C168FC
:1011D00041F40051C160E563202084F8390084F8AF
:1011E0003A00002070BD0000F0B585B0002406462E
:1011F000009401940294039400682D49884254D1CC
:101200002C48C16941F40031C161C16901F4003168
:101210000491816941F0040181618069264D00F0EB
:101220000400049004200090022001900320039009
:1012300069462846FFF760F90820CDE900046946B1
:1012400028460294FFF758F91D4D1C488027C5E930
:101250000004C5E9024720202C61C5E90540284665
:10126000EC61FFF71BF908B1FFF71FF875636E62B9
:10127000134D12484435143001C5102091C5104853
:1012800045F8104944306C61AC61EC61FFF706F938
:1012900008B1FFF70AF835630022114626206E6276
:1012A000FFF78CFA2620FFF77BFA05B0F0BD0000AF
:1012B0000044004000100240000801406C00024061
:1012C00090000020704790F83930202B18D1A9B138
:1012D000A2B190F83830012B12D001628284C2840E
:1012E0000021C163212280F8392080F8381000687D
:1012F000C16841F08001C160002070470120704743
:10130000022070477047FEE70D4808B5416941F07B
:10131000010141614069002200F001000090114686
:101320001020FFF74BFA1020FFF73AFA002211467F
:101330001120FFF743FABDE808401120FFF730BA4B
:101340000010024070B586B0002414480094019447
:1013500002940394816941F020018161816901F067
:1013600020010491816941F00401816180690C4E82
:1013700000F004004FF40045049000222946304656
:10138000FFF7AAF901200095CDE90104022003909E
:1013900069463046FFF7B0F806B070BD0010024055
:1013A0000008014010B586B000241748009401944D
:1013B0000294039404944FF08041059401603B2112
:1013C000C0E9011440F67F41C0E903148461FFF7CE
:1013D000DAFC08B1FEF769FF4FF4805000906946CF
:1013E0000948FFF718FD08B1FEF75FFF2020CDE99F
:1013F000040404A90448FFF7A5FC002801D0FEF767
:1014000054FF06B010BD0000100000200E4810B5BB
:101410000C4901604FF4E13141604FF4805181602B
:1014200000214FF4C062C0E903120C22C0E905217B
:10143000C161FFF7A7FE002803D0BDE81040FEF70A
:1014400034BF10BD0044004050000020FEE7FEE71E
:1014500070477047FFF74CB910B590B02821684627
:10146000FEF7B2FE14210AA8FEF7AEFE0121080421
:10147000CDE900104200029202240491CDE9074018
:101480004FF4501009906846FFF7B6FA08B172B6EB
:10149000FEE70F20CDE90A0400204FF48061CDE97A
:1014A0000C010E9002210AA8FFF7BAF9002801D01A
:1014B00072B6FEE710B010BD0D48016841F00101A1
:1014C000016041680B4A1140416001680A4A1140BD
:1014D0000160016821F480210160416821F4FE016E
:1014E00041604FF41F0181600449C00308607047E8
:1014F000001002400000FFF8FFFFF6FE08ED00E0DC
:101500000148FFF7F4BC000010000020F0B50268AD
:10151000164B174C174D4FF08047984205D0B842F4
:1015200003D0A04201D0A84203D122F070064A683D
:101530003243984205D0B84203D0A04201D0A8421D
:1015400003D122F44074CA6822434C6922F080021D
:10155000224302608A68C2620A688262984201D1AC
:101560000969016301214161F0BD0000002C0140C7
:10157000000400400008004010B5846842EA0322DD
:1015800024F47F440A432243826010BD826822F023
:1015900070020A4342F007018160704710B5036A88
:1015A000046A24F001040462846924F0F00444EA2B
:1015B000021423F00A020A438461026210BD10B5CE
:1015C000036A23F0100303628369046A23F47043FF
:1015D00043EA023224F0A00343EA0111826101626E
:1015E00010BD10B5406A0021C185C184FFF741FDDF
:1015F00010BD0168CA6822F49072CA6001684A6925
:1016000022F001024A61202180F83A10704710B59B
:1016100090F83A10222901D0022010BD8168B1F55E
:10162000805F11D00169002901681FD0496801F06D
:101630007F03816A4A1C82620B70C18D491E0904B6
:10164000090CC18518D02BE00269816A002A026862
:10165000526805D0D2B20A80816A491C8162ECE7E7
:10166000C2F308020A80816A891CF7E74A68816A26
:101670004B1C83620A70E0E70168CA6822F020020E
:10168000CA600168CA6822F48072CA6001684A6947
:1016900022F001024A61202180F83A10FFF712FE81
:1016A000002010BD2DE9F041044600680169E268A0
:1016B00021F44051114301612169A0680843616927
:1016C00008432168CA6841F20C639A430243CA6026
:1016D00020684169A26921F44071114341611E49AA
:1016E000206864253226884202D1FFF73FF901E0E5
:1016F000FFF72CF900EBC00101EB001160686FF0FF
:1017000018078000B1FBF0F2B2FBF5F2B1FBF0F389
:101710007A4303EB8202B1FBF0F306EB0212B2FB59
:10172000F5F2B3FBF5F302F0F00202EB0312B1FBAA
:10173000F0F3B1FBF0F0B0FBF5F0784303EB800081
:1017400006EB0010B0FBF5F0216800F00F0010442C
:101750008860BDE8F08100000038014090F8391041
:10176000212901D0022070478168B1F5805F016AAC
:101770000BD04A1C0262026809785160C18C491E74
:101780000904090CC1840ED017E009880268C1F36E
:101790000801516001690029016A02D0491C0162F7
:1017A000ECE7891CFBE70168CA6822F08002CA6086
:1017B0000068C16841F04001C1600020704700002E
:1017C0000148FFF757BC000050000020FEE7090762
:1017D000090E002804DB00F1E02080F800147047B7
:1017E00000F00F0000F1E02080F8141D70470000A9
:1017F000FEF786FFFFF730FEFFF7A4FDFFF784FD3D
:10180000FFF7D0FDFFF702FE0148FFF7F3FAFEE70E
:10181000100000200000000000000000010203048E
:101820000607080900000000010203044C18000824
:101830000000002010000000280100085C180008CB
:1018400010000020680700004401000801000000AB
:0C18500010000000000000000024F40064
:04000005080000ED02
:00000001FF
